:020000040800F2
:10000000D0090020610200080F2100080720000825
:1000100000000000000000000000000000000000E0
:10002000000000000000000000000000052400089F
:10003000000000000000000061210008A92600085F
:1000400073020008730200087302000873020008BC
:1000500073020008730200087302000873020008AC
:10006000730200087302000873020008730200089C
:100070007302000873020008730200080D270008CD
:10008000E92700087302000800000000730200085E
:10009000730200087302000873020008730200086C
:1000A0007302000873020008730200084129000867
:1000B0007302000800000000730200080000000046
:1000C00000F002F800F0BDF80CA030C80838241881
:1000D0002D18A246671EAB4654465D46AC4201D180
:1000E00000F0AFF87E460F3E0FCCB64601263342F5
:1000F00000D0FB1AA246AB4633431847C832000073
:10010000E8320000103A02D378C878C1FAD8520712
:1001100001D330C830C101D504680C6070470000BD
:100120000023002400250026103A01D378C1FBD813
:10013000520700D330C100D50B60704710B56E294F
:1001400002D100F04BFC10BD702902D100F085FDFA
:1001500010BD662902D102F0FBFF10BD652902D156
:1001600002F0F6FF10BD672902D102F0F1FF10BDC9
:10017000612902D102F0F4FF10BD03681B0A01D30C
:1001800080231943692902D100F0AEF810BD64291B
:1001900002D100F0A9F810BD752902D100F0A4F831
:1001A00010BD6F2902D100F003FD10BD782902D1E6
:1001B00000F040FD10BDE92902D100F09FFC10BD08
:1001C000E42902D100F09AFC10BDF52902D100F01B
:1001D00095FC10BDEF2902D100F0F6FC10BDF82906
:1001E00002D100F035FD10BD0368DB0901D3802387
:1001F0001943632902D101F032F910BD732902D1EC
:1002000001F035F910BDE32902D101F03FF910BD2D
:10021000F32902D101F042F910BD002010BD1FB535
:1002200001F0A8F904000020002102F07BFF401C2F
:1002300060600020002102F05FFFE0601FBD10B58C
:1002400010BD01F070F91146FFF7E9FF02F088FDDB
:1002500001F090FC03B4FFF7F2FF03BC01F094FC43
:100260000748804707480047FEE7FEE7FEE7FEE74E
:10027000FEE7FEE704480549054A064B70470000C3
:10028000AD260008C1000008D0030020D0090020DE
:10029000D0050020D00500201CB50C46064B7B4441
:1002A00069460090204600F0B2FB044600206946F3
:1002B00000F0C0FB20461CBD930700000FB41CB526
:1002C000084B06AA7B4469460090059800F09FFB06
:1002D00004460020694600F0ADFB20461CBC08BC6B
:1002E00004B018476D070000F7B5002575291068A0
:1002F000009914A611D000F0DEFA002802DA40427C
:1003000011A608E0009909688A0701D50FA602E046
:10031000490704D50EA6012501E000F0D5FA009F9B
:100320000024243704E000F0C9FC30313955641C46
:100330000028F8D12B4632462146009800F0F6FA04
:10034000FEBD0000000000002D0000002B0000009A
:1003500020000000F3B50446002081B02062204652
:10036000E1688847002872D0252802D06268A16819
:10037000ABE0594F00267F442046E168884720289B
:10038000054608DB312D06D2781920380078002880
:1003900001D00643F0E7B00701D5042086430020D2
:1003A000E0610746A0612A2D0AD0284602F0D2FB60
:1003B000002827D0B8000019303D0090856119E071
:1003C0000298BA00121902C8916102902046E168B1
:1003D0008847012F054617D1E06900281FDA202041
:1003E00086431CE000980A2180694843009940191F
:1003F000303888612046E1688847054602F0AAFB4C
:100400000028EFD1012F0AD02E2D08D12046E16817
:1004100088470546202006437F1C022FC3DBA069C6
:10042000002803DA4042A06101200643F00701D012
:10043000102086436C2D0BD0682D09D04C2D3CD05C
:100440006A2D38D0742D38D07A2D36D016E040E0A1
:10045000E1682F4620468847B842054609D16C2FEF
:1004600029D001208002E1680643204688470546DE
:1004700004E06C2F1DD0FF2001300643002D28D052
:1004800028464138192803D80120C00206432035E8
:10049000204626602946029A1646FFF74FFE00289E
:1004A00010D001280BD0F61DF008C00008300290D3
:1004B00055E74020E1E78020D5E70020D3E7361D4F
:1004C00002964CE762682846A1689047206A401C63
:1004D00044E7206AFEBD0000F62D000010B5024A78
:1004E00000F0C8FB10BD00005C00002030B50546E0
:1004F0000B462A461C781078521C5B1C002801D041
:10050000A042F7D0002C03D0002802D06D1CEFE7EA
:10051000284630BD034670B502460B439B070FD1FA
:100520000E4CE60100E008C208C91D1B9D43354280
:10053000F9D0D9B21170521C00290DD01B0AF8E76E
:100540000B78491C1370521C002B05D00B78491CEA
:100550001370521C002BF3D170BD0000010101018A
:100560000022CBB20178401C994200D1421E0029E2
:10057000F8D110467047000030B5441C03E0017804
:10058000401C00290DD08107F9D10B4BDD0104C8B7
:10059000D11A91432940FAD0001B0A0603D0C01E8D
:1005A00030BD001B30BD0A0401D0801E30BD0902E1
:1005B000FCD0401E30BD000001010101421E5378F5
:1005C000521C002BFBD10B78491C1370521C002BC2
:1005D000F9D1704701E004C0091F0429FBD28B0741
:1005E00001D50280801CC90700D002707047002925
:1005F0000BD0C30702D00270401C491E022904D34D
:10060000830702D50280801C891EE3E70022EEE703
:100610000022DFE7F8B507460B463946194389073C
:1006200013D1164CE601042A0FD302CB0D1B8D43C8
:10063000354202D102C0121FF5E7CBB20370401C55
:10064000521E002B13D0090AF7E7002A14D019789C
:10065000521E5B1C0170401C002908D0002A0BD0E0
:100660001978521E5B1C0170401C0029EDD1002A34
:1006700002D01146FFF7CAFF3846F8BD010101015B
:10068000024670B50A4392072AD11E4DEE0104C8F6
:1006900008C9541B9443344017D0D0B2D9B2401A81
:1006A0002106014310D190B299B2401A21040143AE
:1006B0000AD110021902000A090A401A2102014354
:1006C00002D1100E190E401A70BD9A42DFD010BA36
:1006D00019BA884201D9012070BD0020C04370BD05
:1006E00002780B78401C491C002A09D09A4207D195
:1006F00002780B78401C491C002A01D09A42EFD0A6
:10070000D01A70BD01010101002203098B422CD3D4
:10071000030A8B4211D300239C464EE003460B4351
:100720003CD4002243088B4231D303098B421CD3B3
:10073000030A8B4201D394463FE0C3098B4201D3A5
:10074000CB01C01A524183098B4201D38B01C01ADD
:10075000524143098B4201D34B01C01A5241030954
:100760008B4201D30B01C01A5241C3088B4201D303
:10077000CB00C01A524183088B4201D38B00C01AB0
:10078000524143088B4201D34B00C01A5241411AD7
:1007900000D201465241104670475DE0CA0F00D0BA
:1007A0004942031000D34042534000229C460309B3
:1007B0008B422DD3030A8B4212D3FC22890112BA39
:1007C000030A8B420CD3890192118B4208D3890111
:1007D00092118B4204D389013AD0921100E0890929
:1007E000C3098B4201D3CB01C01A524183098B420A
:1007F00001D38B01C01A524143098B4201D34B01F3
:10080000C01A524103098B4201D30B01C01A524155
:10081000C3088B4201D3CB00C01A524183088B42DC
:1008200001D38B00C01A5241D9D243088B4201D365
:100830004B00C01A5241411A00D201466346524150
:100840005B10104601D34042002B00D5494270474F
:1008500063465B1000D3404201B50020C046C0464D
:1008600002BD70477047704770B5044685690068DF
:10087000C10601D5302600E02026C00707D070BD94
:1008800062683046A1689047206A401C20626D1E55
:10089000F6D570BD70B5044685690078C00707D1EC
:1008A00070BD6268A16820209047206A401C2062C9
:1008B0006D1EF6D570BD09684A0501D540B2704776
:1008C000C905FCD500B2704709684A0501D5C0B218
:1008D0007047C905FCD580B2704770B50C46054617
:1008E000012A05D02878800600D5EA69002302E0B5
:1008F000012305E05B1C934202D2E05C0028F9D1A1
:10090000A869E618C01AA861286AC0182862284693
:10091000FFF7AAFF04E06A682078A968641C904782
:10092000B442F8D32846FFF7B5FF70BDFFB50446C3
:100930000D4681B0243000902168880604D510222D
:10094000E0699143216000E00120A84201DD471BDE
:1009500000E000270498A1697A191018081AA0610C
:100960002078C00602D42046FFF77EFF002608E06C
:1009700003986268A168805D9047206A401C761CDD
:10098000206204988642F3DB2078C0060AD5204610
:10099000FFF76AFF06E06268A16830209047206A8E
:1009A000401C206238467F1E0028F4DC07E00098D7
:1009B0006268A168405D9047206A401C206228461A
:1009C0006D1E0028F3DC2046FFF764FF2078000648
:1009D00002D5022005B0F0BD0120FBE711680268D6
:1009E000006A530501D5087009E0D30501D50880D8
:1009F00005E0130602D5C21705C100E0086001201A
:100A00007047000001694A1C02610878704700B510
:100A10008FB002910021059105490193794403911A
:100A2000114604906846FFF795FC0FB000BD00002A
:100A3000E5FFFFFF0A681070521C0A607047000053
:100A4000F7B50446154686B02B487844002703C8FE
:100A50003E460090019111E007986A467100415AA4
:100A600002A800F01FFD411C07D02178890603D59C
:100A7000E269391891420ED83F18761C207880061A
:100A800002D5E069B84206DDAE42E5DB07987100A9
:100A9000405A0028E0D1A069C01BA0612046FFF7A2
:100AA000E3FE154878445A3803C8009000200191AD
:100AB00016E041006A460798415A02A800F0F2FC8D
:100AC0000590401C0AD0002505E0626802A8A168D4
:100AD000405D90476D1C05988542F6D30498401CF4
:100AE000B0420490E5DB206AC01920622046FFF77F
:100AF000D1FE09B0F0BD000036270000F7B5D21DC9
:100B00000025D20815A6D200F52905CA11D0002A61
:100B100005DA00214042914111A60A4608E00099F9
:100B200009688B0701D50FA602E0490701D50EA67B
:100B300001251146009F0024243704E000F0D2F87C
:100B400030323A55641C02460A43F7D12B463246EE
:100B500021460098FFF7EAFEFEBD000000000000FD
:100B60002D0000002B0000002000000070B504469E
:100B70000021243408E05507D2086D0F3035655444
:100B80005D072A43DB08491C15461D43F3D1046861
:100B9000002310A2250708D520252C400C4304D0A3
:100BA000C46901230CA2641EC461FFF7BFFE70BDBF
:100BB00010B5044621461068FFF786FE0023024662
:100BC0002046FFF7D3FF10BDD21DD108C9000CC9C4
:100BD000CCE700000000000030000000F8B50F4630
:100BE0000188090502D5224C7C4402E0204C7C445B
:100BF0000E3405460021243508E016071209360F89
:100C0000A65D6E541E0732431B09491C16461E433F
:100C1000F3D1224604780023240705D5702F06D08F
:100C2000002901D002231132FFF780FEF8BD012315
:100C30001032F9E770B504460D4621461068FFF7FB
:100C400043FE0023024629462046FFF7C7FF70BD3A
:100C5000D21DD308DB000CCBC0E730B403682024DE
:100C60001268234303600823C36130BC0023B5E747
:100C7000A0250000F8B515460E46040003D12C68E7
:100C8000002C00D10CA4204600F03DFC0419207873
:100C900000280ED027463146384600F023FC0419C0
:100CA0002078002802D000202070641C38462C6078
:100CB000F8BD0027FAE700000000000001468008A8
:100CC000081A02091018020A1018020C1018C0089D
:100CD000820012185200891A01E0401C0A390A29C0
:100CE000FBD270470B4670B502468907800808435F
:100CF00019469D08141AA941250908070543080942
:100D00002C194841250A01060D43010A2C194141BD
:100D1000200C0D0428430D0C00194D4100214019F1
:100D20004D41C00869070843E908840F8D00254339
:100D3000840024184D4124196D41121BAB4107E07A
:100D40000925ED432C11521963410024401C6141D7
:100D50001C460A250026551BB441F1D270BD000087
:100D60007047FFB50C461E468FB003CA0890099124
:100D70004F007D0D00D16D1E002108460020C046A9
:100D80000321099A89050840002A03DA82008018A5
:100D900040080840800D01280A9002DD0020C04371
:100DA0000A90089807430DD0EF48F04928184843A7
:100DB0000714189800281DD07542291E1DDD0A98B9
:100DC00042421BE01898012802D00020302104E0A4
:100DD0000020F24305E02154401CB042FBDB3046CA
:100DE0000022189B002121540F998B600A604860F3
:100DF00013B0F0BDBD1B6D1CDFE70A9A002900DAB5
:100E000069420BA800F0FEFB0BAB07CB03AB07C39B
:100E10000899099800F05AFC6B4607C30146D4486C
:100E20000918002D00910ADDD14903980A9A494218
:100E3000401803A90390684600F06DFE07E003998F
:100E40000A9A081803A90390684600F03AFE6B4618
:100E500007C30004000C03D00020C043410800E099
:100E60001046189A002A03D00022009215461EE070
:100E7000751E05D4FFF736FF303262556D1EF9D569
:100E800001220843079602D000227F1C04E020784C
:100E9000302801D100227F1E002A069789D01EE04B
:100EA000112D07DAFFF71EFF303262556D1C024626
:100EB0000A43F5D1084303D00098002819D00EE06A
:100EC0000021681E05E0235C625C63542254401ECE
:100ED000491C8142F7DBA81B401E07950690079A24
:100EE00018990020A0540F98079B069A81600CC0A7
:100EF0007EE71126002018905BE7D21DF0B50D4665
:100F00000446D10893B0C90003C90C900D9101F0BB
:100F10000BFE02460D98C00F01D02D2007E020687F
:100F2000810701D52B2002E04007C00F4001032AB2
:100F30000F9001D0072A05DB03462946204600F022
:100F40001DFB0EE12078800601D5E76900E0062749
:100F50002846652D04D0662814D0672D69D12DE070
:100F60000020112F009001DB112300E07B1C0CAA54
:100F700003A910A8FFF7F5FE1199002610987D1C13
:100F80000E9142E001203B460CAAC0070B900120C5
:100F9000009003A910A8FFF7E4FE119D1298109984
:100FA000002600280E9501D1781C0D18781B02D45C
:100FB00046427D1C761EE81B00903AE0012F00DAC5
:100FC00001270020112F009001DD112300E03B4696
:100FD0000CAA03A910A8FFF7C4FE11993D4610986A
:100FE00000260E91217809070BD40E99A94200DA48
:100FF0000D4603A9012D04DD4A19203AD27F302A7B
:1010000006D0B84201DA011D04DA012100910FE097
:101010006D1EEFE7002802DC86192D1A03E0411C43
:10102000A94200DD0D46801B401C00900120C00736
:101030000B902078000705D40098A84202DB00201E
:10104000C043009069460020C8720B98012102AF8E
:101050000337C907884225D0022010902B20119019
:101060000B9800280BDA40420B902D20119006E0DF
:101070000B98FFF723FE30317F1E0B9039701099CB
:10108000481E00291090F3DC0B980028F0D111982D
:101090007F1E38702088000501D5452000E06520BE
:1010A0007F1E387001A8C01BC01D0B900F98002830
:1010B00000D0012041190098C01709180B98081892
:1010C000A169081A401EA0612078C00602D42046FB
:1010D000FFF7CAFB0F98002805D06268A168904707
:1010E000206A401C20622078C00625D52046FFF7E4
:1010F000BBFB21E0002E07DB0E98B04204DD03A805
:101100006268805DA16802E06268A1683020904753
:10111000206A761C401C20620098401E0028009027
:101120000AD100F027FAC06862680168405CA168D3
:101130009047206A401C206228466D1E0028D9DC9A
:1011400007E062683878A1687F1C9047206A401CDD
:1011500020620B99481E00290B90F2DC2046FFF715
:1011600099FB032044E6000001FCFFFF104D000046
:10117000E1DFFFFFD21DF0B504460D46D0088DB06B
:10118000C000466807683146384601F0CDFC02468B
:10119000F00F01D02D2307E02068810701D52B2314
:1011A00002E04007C00F43016846002B037001D0E6
:1011B000012000E00020032A0A9001D0072A04DB66
:1011C0002946204600F0DAF92BE12078800601D488
:1011D0000D2500E0E5697000400D0D2D01904BDA02
:1011E000300D00210B9008460020C04603218905E0
:1011F0000840002E05DA82008018C20F1018401037
:1012000008408015012801DD0020C043A90000230B
:10121000182906D39C460A460123183A1B07D340D7
:1012200003E001221205CA4094460C31202902D362
:101230003A46203900E032468A40002802DD002A82
:1012400006D119E0002817D10121C9078A4213D31A
:10125000194663467F185E41002806D10120C00769
:10126000824202D1084687439E430B98310D81424A
:1012700002D00198401C01902088000502D57049D9
:10128000794402E06E49794419396B460A98302254
:101290001A540A980A7C401C1A54401C0A9001985F
:1012A000002801DC302000E031201872019A012072
:1012B000002A02D0634BD21804E072003A4302D0F5
:1012C000604A521C0192002D02DC2278120703D5DD
:1012D0006A462E20507202200022864694460CE078
:1012E00032033601120F6D1E8B5C02AA1354624644
:1012F000521C401C9446052A01DA002DF0DC002225
:1013000002AE08E03B0F3F01CB5C521C6D1E335414
:10131000401C082A01DA002DF4DC2278920601D55F
:101320000FE0401E704504DD3218203AD27F302A8B
:10133000F7D0002805DD3218203AD27F2E2A00D1BE
:10134000401E002D03DD3E223254401C6D1E497CA0
:1013500031540199401C002906DA2D21471C3154D3
:1013600001984042019003E02B21471C3154019821
:101370007D21C900884206DBFFF7D0F93030F055F7
:101380007F1C019101E0642808DB01986421FFF7CC
:10139000C5F93030F0557F1C019101E00A2806DBC9
:1013A00001980A21FFF7BAF93030F0557F1C0198F7
:1013B0000A21FFF7B3F93031F1550A98A1697F1C72
:1013C0007A191018081AA0612078C00602D42046A5
:1013D000FFF74AFA216A6E460A980818206204E06C
:1013E00062683078A168761C90470A98401E0A907F
:1013F000401CF5D12078C00602D52046FFF734FA0C
:1014000002AE09E03078761C3E280DD06268A168F3
:101410009047206A401C20627F1EF3D22046FFF7CF
:1014200039FA0DB00320F0BD206A4019206203E0B4
:101430006268A168302090476D1EEDD3F8E7000088
:10144000431F000001FCFFFF10B54369002B02D0D1
:10145000C046C04601E0FFF740FA012010BD1278F7
:10146000014624310A7000224A700122ECE711681B
:101470000022D243E8E710B54369002B02D0C046F2
:10148000C04601E0FFF7DCFA012010BD12880146DA
:10149000243182840022C2840122ECE711680022F8
:1014A000D243E8E770B516460C46054600F05AF8F8
:1014B0000368FF200230C05C012807D0FF2C0ED843
:1014C000185D00280BD001202C7070BDFF33324610
:1014D000214608331868C3182846984770BD002075
:1014E000C04370BD30B503461D78002D03D00A46B9
:1014F00003E0AC4201D1181A30BD1478521C002C04
:10150000F7D15B1CF0E730B503461D78002D08D0FD
:101510000A461478521C002C03D0AC42F9D15B1C53
:10152000F3E7181A30BD754600F02AFBAE460500F9
:1015300069465346C008C000854618B020B5FEF77E
:1015400099FE60BC00274908B6460026C0C5C0C544
:10155000C0C5C0C5C0C5C0C5C0C5C0C5403D4900A7
:101560008D46704710B500F005F8001D10BD00BF96
:10157000B51B0000004870478C030020F8B51F46DB
:10158000044601230068DB02032601461840072AAF
:1015900005DB002801D017A506E017A504E0002808
:1015A00001D016A500E016A5102081432160A06996
:1015B000C01E002FA06101D0401EA0612046FFF791
:1015C00053F9002F09D038466268A1689047206A15
:1015D000401C2062C01C206206E0206AFAE76268B4
:1015E0002878A1686D1C9047761EF8D22046FFF738
:1015F00051F9F8BD4E414E006E616E00494E4600F5
:10160000696E6600F7B516468AB02F4878446C4676
:1016100003467C33C06F5A689B680DC42A487844DF
:10162000763003AC0DC80DC43720C001081837212F
:101630001B30FFF773F805460C46803D1B3C02D576
:101640006442012000E00020002709900FE0E0073D
:101650000BD00C201C497843794432464C39411850
:10166000684600F02EFA6B4607C364107F1C002CFE
:10167000EDD1154F7F442C3F15E0E80711D0200134
:10168000C0190EC80691089307920068F04201D174
:1016900098190890324606A903A800F012FA03AB85
:1016A00007C36D10641C002DE7D1324669460998C6
:1016B000002803A802D000F02EFA01E000F001FAA1
:1016C0000A9B07C30DB0F0BDCC1B000003464000D1
:1016D0000A4610B5400D0BD00121C9070F24A40202
:1016E00000191C0364082143540D2143D20207E072
:1016F00000210120F2E7D40F490021435200401E8F
:101700000029F8DADB0FDB07184310BDFFB50D46E3
:10171000144685B04868516801F0E0F900910190E5
:10172000A868A16801F0DAF902910390A8686168DD
:1017300001F0D4F9029A12188242029201D20120D9
:1017400000E00020019A0B18D2180028019202D064
:101750008A4202D903E08A4201D2012000E000203F
:101760000099081800906868A16801F0B7F9029A1A
:1017700012188242029201D2012000E00020019A58
:101780000B18D2180028019202D08A4202D903E035
:101790008A4201D2012000E0002000990818009040
:1017A0002868216840004900400849084018EE496F
:1017B000471814E001994000C90F084300900198B0
:1017C00002994000C90F0843019002980399400014
:1017D000C90F08430290039840007F1E03900098B1
:1017E0000028E7DA0898002801D0E04E00E0002643
:1017F000B74228DAF71BF806C00E15D0029B20214D
:10180000091A039A8B401A430392029A019BC24021
:101810008B401A430292019A009BC2408B40009970
:101820001A430192C14000917A110BD06B460320FC
:10183000811A01D5002101E0890059588700401E16
:10184000D951F5D5374603980299002800D00120D8
:10185000014308980291002808460CD0002800D0C7
:1018600001200199019A490508430121D20AC902C0
:10187000D202019200E001210E9B0122D207012B2E
:1018800002D0002B03D013E0002807D116E09042CD
:1018900004D890420CD1019B0B4209D0019B5918EE
:1018A000019105D10099491C009101D17F1C009242
:1018B000002803D0102108460020C046286821686F
:1018C000019B009A4840C10F0598C90739430EC0D3
:1018D00009B0F0BDFFB587B0099A08980899536818
:1018E000926840688968964600220393174694469A
:1018F000089A12685300099A5B081268520052084D
:101900009A1A9B4BD4180A9A002A01D0352200E07B
:10191000402206920022012315460492DB0705931C
:1019200024E0002D05D175460346039E4D1BB341AF
:1019300009D375466646039B491B049D9841059B48
:101940007519AC465F4163463B4308D0059B049E36
:10195000DD0776082E435B080496059301E0521ECE
:10196000641EC50FED0749184041521C069B9A4260
:10197000D7DB002D04D17546039A6B1A824101D240
:1019800003200CE0039A0B466B404240134303D004
:10199000014303D0012002E0022000E00020614664
:1019A00001910021009702910A99002905D0614612
:1019B000400201436D4B019102E080070023029039
:1019C0009C423ADA1A1BD006C00E15D0029D202187
:1019D000019C091AC5408C402543029C8C4000D0D4
:1019E00001242543019C02953D46C4408D40394663
:1019F0002C43C1400194009154111DD06D46022129
:101A0000002202290CD10320001B07E0002804DB80
:101A10008600AE59002E00D00122401C0328F5DBC1
:101A2000081B02D588002A5004E080002858104383
:101A30008A00A850491EE3D51C460A98002802983F
:101A40000CD0002800D001200199019A49050843D3
:101A50000121D20AC902D202019200E00121109BA9
:101A60000122D207012B02D0002B03D013E0002863
:101A700007D116E0904204D890420CD1019B0B4252
:101A800009D0019B5918019105D10099491C009179
:101A900001D1641C0092002803D0102108460020C8
:101AA000C04608980999019A006809684840009959
:101AB000C30F0798DB0723430360826041600BB0CC
:101AC000F0BD1FB5002300920A46014601A8FFF7AA
:101AD0001DFE01AB07CB04B010BD1FB50123009262
:101AE0000A46014601A8FFF711FE01AB0F2407CB00
:101AF000A402C30F4000DB074008001B002900DBE5
:101B00000020490000054908CC0A20434905184334
:101B1000D20A1143DFE71FB5002300920A460146AF
:101B200001A8FFF7D7FE01AB07CBD4E71FB5012310
:101B300000920A46014601A8FFF7CCFE01AB0F2434
:101B400007CBA402C30F4000DB074008001B00299D
:101B500000DB0020490000054908CC0A2043490564
:101B60001843D20A1143B6E702C0FFFF013C000050
:101B7000FF3F00000446C046C0462046FEF76AFB11
:101B8000004870476C03002001491820ABBEFEE7F7
:101B90002600020070470000F8B5244D2888000494
:101BA0003DD5234A23A1254801F08AF8204801F0B9
:101BB00075F80024012833D021A000F0E7FF0028A9
:101BC00027D001200021800700F05CFE214804702E
:101BD00021490A2008700926F6060821304600F03F
:101BE0008CF9282000F0F2FF0821304600F087F938
:101BF000282000F0EBFF0821304600F07EF9282075
:101C000000F0E4FF0821304600F079F9282000F0C8
:101C1000DDFFFF212D310948FEF7F8FC2C80F8BDCF
:101C20006A460EA1024801F06BF8F2E7400000207E
:101C30007200002077656C636F6D650040010020C5
:101C4000436F6E6E656374696F6E3A20636C6F7379
:101C5000650000003E0000203C00002073746174A9
:101C60007573000010B500F047FB6421FEF74CFDD2
:101C7000044C206000F083FB6421FEF745FD6060AA
:101C800010BD00002C000020F8B50926F6062BE058
:101C9000642000F09BFF2021304600F027F9002847
:101CA00022D10024FF25144FF53500F025FB6421D7
:101CB000FEF72AFD386000F062FB6421FEF724FD88
:101CC0000E4908600821304600F017F9284600F058
:101CD0007DFF0821304600F012F9284600F076FF1B
:101CE000641CE4B20A2CE0D32021304600F0FEF858
:101CF0000028CDD0F8BD00003400002038000020BE
:101D000070B5114C00256078002804D0012810D04F
:101D100002280BD111E009200821C00600F0EFF8DD
:101D200000F020FA002802D00120607070BD6570BC
:101D300070BD00F069FB02206070A57000F034FCFB
:101D40000320207070BD00003C000020F8B5424C1C
:101D50000727207805250326030000F0D7FE0B0790
:101D6000252E324049575F686D72240000F06CFBED
:101D700064250926F6060821304600F0BEF8322018
:101D800000F024FF0821304600F0B9F8322000F0BE
:101D90001DFF6D1EEDB2002DEDD10821304600F083
:101DA000AEF801202070F8BD00F0A2FB002801D0A1
:101DB0002570F8BD02202070F8BD00F007FC2670E9
:101DC000F8BD09200821C00600F097F800F0CAFB12
:101DD000002801D02570F8BD04202070F8BD00F067
:101DE000E3FB002801D02670F8BD04202070F8BD68
:101DF00009200821C00600F082F800F0A5FB0028A9
:101E000001D02770F8BD06202070F8BD00F0FCFA64
:101E1000002801D02570F8BD2670F8BD00F07EFBCB
:101E2000002802D008202070F8BD2770F8BD00F00F
:101E30002DFB09202070F8BD00F0F6FA0A20207072
:101E4000F8BD00F035FB0B2020700121880700F061
:101E500019FD0120A070F8BD3C000020F0B5002263
:101E60000325012393400C681C409C422AD10C7925
:101E7000012C01D0022C12D1876854002E46A640B6
:101E8000B74387604E79A64084682643866084887D
:101E90009C43848084888B7993401C4384800668AB
:101EA00053002C469C40A64306600E7907689E406E
:101EB0003E430660C668A643C660CC799C40C368B2
:101EC0001C43C460521C102ACBD3F0BD10B54B0785
:101ED000DB0E9A40C90889000818016A0F249C404B
:101EE000A1430162016A1143016210BD0246002054
:101EF000128A0A4200D00120704701857047816133
:101F000070470000F8B50C46184E0027378000F0E7
:101F100091FF002C27D0164D21E00A2000F056FE3C
:101F2000308800041BD513A000F01CFE002815D03B
:101F300010A000F017FE11A1FEF7D0FA0FA10020AB
:101F4000FEF7CCFA0EA1FEF7C9FA0021421852782A
:101F50006A54491CC9B21129F8D36F743780641EC2
:101F60002404240CD9D10248F8BD00004000002010
:101F7000600000205354414D414300002C000000FC
:101F80000D0A0000FEB50121480400F00BF90125FF
:101F900000950024684604718571C471032646715A
:101FA0000927FF0669463846FFF758FF02200090D0
:101FB000684605718471C471467169463846FFF7F9
:101FC0004DFFFEBDFEB50121480400F0EBF84020B6
:101FD000009000246846047101258571C4710326B0
:101FE00046710927FF0669463846FFF737FF80200C
:101FF0000090684605718471C4714671694638461F
:10200000FFF72CFFFEBDFEE770B500240925ED06A5
:1020100034E0FF20F53000F0D9FD10212846FFF70D
:1020200065FF00282AD1641CE4B2062C26D10024C6
:1020300008212846FFF761FF144A02211170144954
:102040000020087008212846FFF757FFE62000F01F
:10205000BDFD08212846FFF752FFE62000F0B6FD3F
:1020600008212846FFF749FFE62000F0AFFD0821D0
:102070002846FFF744FFE62000F0A8FD102128467F
:10208000FFF734FF0028C4D070BD00003E000020E0
:102090003D0000201CB50121480400F083F83020E9
:1020A000009000206946087188710120C8710320E2
:1020B00048710920C006FFF7D1FE1CBDFEB5012105
:1020C000480400F06FF8082000900125684605716B
:1020D00000248471C471032646710927FF066946EE
:1020E0003846FFF7BBFE802000906846057184717A
:1020F000C471467169463846FFF7B0FE8021384604
:10210000FFF7FBFE08213846FFF7F9FEFEBD7047DA
:1021100030B5827801240178002A16D08B080E4A47
:102120009B009A1813688907C90EFF258D40AB43A1
:102130004578AD072D0E8D401D4315600078C00613
:10214000C00E84400548046030BDC806C00E8440FF
:1021500002488030046030BD00E400E000E100E0AF
:102160007047000010B50BA000F056FFFF24F534B7
:10217000204600F02BFD204600F028FD06A000F0D0
:102180004BFF0A2000F022FD142204A104A000F05D
:1021900055FD10BD2B2B2B000D0A00004F4B0000EE
:1021A00041540000054A002903D05169014351619F
:1021B000704751698143516170470000001002402F
:1021C000054A002903D0D1690143D1617047D16923
:1021D0008143D1617047000000100240054A002988
:1021E00003D0916901439161704791698143916185
:1021F0007047000000100240F8B50446384E706881
:102200000C210840374D00281CD004281CD0082879
:102210001CD025607068F02108400009324F3A5CFC
:1022200020680146D1406160726807231B021A4092
:10223000120ABA5CD140A160326BD20520D42B4A7D
:10224000E26025E02560E5E72560E3E771680F209F
:102250008004014070680122120410408F0CBF1CE2
:10226000002809D0F06A0107090F491C2846FEF72B
:102270004BFA78432060CDE71D4847432760C9E704
:102280007268520402D44A08E26001E08A08E260FF
:10229000326B184B520603D4164A1232226100E008
:1022A0002361326BD20601D4656100E06061326B5C
:1022B00092070FD0316B8907890F01290CD0306B41
:1022C0008007800F022809D0306BC043800700D1FF
:1022D000A561F8BDA161F8BDA061F8BDA361F8BD1D
:1022E0000010024000127A004C000020809FD500B0
:1022F00000093D000080000070B500240926F606A4
:1023000001213046FFF7FBFD02213046FFF7F5FDC6
:1023100001213046FFF7EAFD0028F9D1012000F045
:1023200071FC002502213046FFF7E9FD6400012021
:1023300000F068FC02213046FFF7DFFD0121304646
:10234000FFF7D4FD002800D0641C012000F05AFCE7
:102350006D1CEDB2182DE5D302213046FFF7CFFDFD
:102360000120C0054440012000F04CFC0221304611
:10237000FFF7C3FD012000F045FC204670BD70B59D
:1023800000240926F60640213046FFF7B8FD8021DB
:102390003046FFF7B2FD40213046FFF7A7FD002889
:1023A000F9D1012000F02EFC002580213046FFF7F6
:1023B000A6FD6400012000F025FC80213046FFF7D7
:1023C0009CFD40213046FFF791FD002800D0641CA1
:1023D000012000F017FC6D1CEDB2182DE5D3802113
:1023E0003046FFF78CFD0120C0054440012000F07D
:1023F00009FC80213046FFF780FD012000F002FC3F
:10240000204670BD7047000010B5142202A103A041
:1024100000F014FC10BD00004F4B000041542B4352
:102420004950434C4F53450010B5142202A103A05C
:1024300000F004FC10BD00004F4B000041542B4342
:10244000495053454E44000010B50BA000F0E4FD88
:10245000FF24F534204600F0B9FB204600F0B6FB1F
:1024600006A000F0D9FD0A2000F0B0FB142204A160
:1024700004A000F0E3FB10BD2B2B2B000D0A000085
:102480004F4B000041542B525354000010B51422FE
:1024900002A103A000F0D2FB10BD00004F4B0000D2
:1024A00041542B4349504D4F44453D3100000000FD
:1024B00010B5D4B00B4C6846A168FEF72BF86846FF
:1024C0006168FEF77BF808496846FEF777F86846CA
:1024D000E168FEF773F8142204A1684600F0AEFB31
:1024E00054B010BD14000020600000204F4B0000CD
:1024F00010B5322202A105A000F0A0FB10BD000023
:102500005354415455533A320000000041542B4378
:1025100049505354415455530000000010B5012454
:10252000322105A0FFF7EEFC06490861002800D122
:102530000024204610BD000041542B43494653520D
:10254000000000001400002010B50548C82202A1B8
:10255000006800F073FB10BD434F4E4E45435400DE
:102560001400002010B5034A03A10AA000F066FB86
:1025700010BD000030750000736D617274636F6E82
:1025800066696720636F6E6E656374656420776942
:102590006669000041542B43575354415254534DE4
:1025A0004152543D3200000010B5142202A103A094
:1025B00000F044FB10BD00004F4B000041542B4382
:1025C0005753544F50534D415254000010B51422EC
:1025D00002A103A000F032FB10BD00004F4B000031
:1025E00041542B43574D4F44455F4445463D3100D0
:1025F0001CB50023019300932248016801221204B4
:102600001143016051000524240302680A4000922E
:10261000019A521C0192009A002A02D1019AA24208
:10262000F3D10168890302D50121009100E00093F4
:102630000099012925D1144911220A60416841609D
:102640004168416041683F22120491434160416802
:102650001122120411434160016801221206114344
:10266000016001688901FCD54168890889004160E1
:10267000416802221143416041680907890F02291C
:10268000FAD11CBD0010024000200240042205497E
:10269000042803D008699043086170470869104313
:1026A0000861704700E000E07047000010B5144872
:1026B00001680122114301604168124A11404160E2
:1026C0000168114A1140016001680122920491439E
:1026D000016041683F22120491434160C16A0909C7
:1026E0000901C162016BFF22543291430163416BC6
:1026F00049084900416300218160FFF779FF10BD5F
:10270000001002400CB8FFF8FFFFF6FEF8B50121FB
:102710008E07304600F0C2F8002830D00121304644
:1027200000F0ADF8184C6078012828D1E078401C02
:10273000E0702078401CC0B220702179491C2171C2
:1027400000250127142809D1257061790920C006C8
:10275000002907D065710821FFF7D1FBE078142824
:1027600005D007E067710821FFF7C7FBF6E7E570C2
:102770000648077020790A2801D12571A770012128
:10278000304600F07CF8F8BD420000202800002010
:102790007FB504460D4601210846FFF711FD02945E
:1027A00069468D8000208881C8800124A40701A982
:1027B000204600F08BF80121204600F05DF8012250
:1027C0001146204600F076F80121204600F05AF824
:1027D0000F20694608700220487001208870684602
:1027E000FFF796FC7FBD000010B50C4C0121204680
:1027F00000F054F800280CD00948E2130188114376
:1028000001800121204600F03AF80021204600F026
:1028100039F80121204600F032F810BD00040040D4
:10282000400000207FB505460E4601210220FFF73B
:10283000C7FC10216846017000244470012181709A
:10284000FFF766FC0295684686808481C480094C47
:1028500001A9204600F03AF80121204600F00CF8CA
:1028600001221146204600F025F80121204600F003
:1028700009F87FBD00040040C94301827047C94385
:1028800001827047002904D0018801221143018090
:1028900070470188490849000180704702460020BE
:1028A000138A0B4092890A40002B02D0002A00D0E4
:1028B00001207047002A03D082890A438281704731
:1028C00082898A43828170474162704710B50288CD
:1028D000144B984206D00124A407A04202D0124C07
:1028E000A04203D17024A2434C8822430F4CA04243
:1028F00003D00F4C22400C89224302804A68C262F6
:102900000A880285984208D00A4A904205D00A4AAD
:10291000904202D0094A904201D1897A0186012170
:10292000818210BD002C01400004004000100040D6
:10293000FFFC00000040014000440140004801400D
:1029400070B5154C1349204600F041F800281AD004
:10295000204600F0BBF8C4B2104D2888010412D400
:10296000FF2811D80E4E00213046FFF7ADFF288812
:10297000002803D101213046FFF784FF2888411C3D
:10298000298008490C5470BD0121C90308432880DF
:1029900070BD000005010500003801404000002026
:1029A0000004004040010020002904D001680122F9
:1029B0001143016070470168490849000160704790
:1029C00002460020D2690A4200D00120704730B58B
:1029D00000240A04130E01252A468A40012B0ED03A
:1029E000022B0FD083681340090C8D40C06928402A
:1029F000002B02D0002800D00124204630BD0368FF
:102A00001340F1E743681340EEE710B50B041C0ECA
:102A100001238B40022C02D0032C02D002E0001DC7
:102A200000E00830002A03D001681943016010BD9E
:102A300001689943016010BD30B587B004460D466A
:102A40002068400840002060606803210903884333
:102A5000A96801436160206819490840EA6869680B
:102A600011432A69024311432160A068032109022E
:102A7000884369690143A1606846FFF7BDFB1148BF
:102A8000844201D1069800E002982168090404D527
:102A900040002968FDF738FE02E02968FDF734FEA2
:102AA0002A6852088A4200D8401C2168090404D5CB
:102AB0000107490F044A10400843A08107B030BD08
:102AC000F3E9FFFF00380140F0FF0000808CC005F3
:102AD000C00D7047C905C90D01857047F8B5040CD4
:102AE0008BB2264682B25E43104658430D0C370C1B
:102AF000360400218019164679416E43370C36049E
:102B00008019264679416E438919F8BD30B4744660
:102B1000641E2578641CAB4200D21D46635D5B00D9
:102B2000E31830BC184700004900CA0202431000F5
:102B300000D004204A0D01D001221043044A490D5F
:102B4000914201D102210843012800D1052070479C
:102B5000FF07000030380A2801D20120704700200A
:102B60007047000010B501460020064A1288130481
:102B700006D55204044B520C98541846FDF7B6FC87
:102B800010BD0000400000204001002010B50146AB
:102B90000148FDF7ABFC10BD4001002010B504203A
:102BA000C043FFF773FD074805490068FDF7ACFD1A
:102BB000054940B208707D22D2005043488010BDC4
:102BC0000048E80100000020480000200B490222D4
:102BD0008A5E0B495043486100238B6108690122DA
:102BE000104308610869C20701D0C003FAD508691B
:102BF0004008400008618B617047000048000020D9
:102C000000E000E00B4900228A560B49504348611E
:102C100000238B6108690122104308610869C2071B
:102C200001D0C003FAD508694008400008618B61F3
:102C3000704700004800002000E000E0F7B51446AF
:102C40000125124E0027378000F0F4F80198002883
:102C500015D0002C0CD112E00A20FFF7B7FF308806
:102C6000000405D50198FFF77DFF002804D13780C7
:102C7000641E2404240CEFD1002C00D10025002D6B
:102C800001D00120FEBD0020FEBD0000400000205C
:102C900010B5FFF777F9FFF795F910BD10B50446A9
:102CA0002046FDF769FC80B221787B2904D12018E9
:102CB0002038C07F7D2801D0002010BD012010BD2C
:102CC000F8B51546FDF712FC0CA1FDF70FFC064602
:102CD0007D213046FDF744FC07463046FDF74CFCAD
:102CE00004463846FDF748FC241A22463146284659
:102CF000FDF790FC00202855F8BD00007B00000087
:102D0000F8B50C4616462146FDF7F0FB0546204671
:102D1000FDF732FCC0B22C180027002D0CD0203D4E
:102D2000E87F222808D12078222805D160783A2827
:102D300002D1A078222802D037700020F8BDE41C10
:102D400006A12046FDF7D2FB001BC5B22A4621464C
:102D50003046FDF75FFC77550120F8BD22000000EA
:102D6000FFF71CFF234CC8202146FFF75BFD2146DF
:102D70003220FFF70DFDE120400200F075F9FFF76A
:102D80009DF9FFF787F9FFF783FF1B4E1B4F0025C7
:102D90001B4CFFF739F9FEF777FF2078012805D1A2
:102DA0003078012802D1357000F0A8F83878012871
:102DB00002D13D70FEF756FF1248007800280BD074
:102DC000012812D00228E4D1257000214007FFF726
:102DD00059FDFEF795FFDCE72570012000218007F3
:102DE000FFF750FDFEF7B2FFD3E701202070FEF79A
:102DF000D3FECEE71F1C0000280000204400002066
:102E0000430000203E000020F8B505460E46002491
:102E1000074F0AE0295D3846FFF75CFE80213846FF
:102E2000FFF7CEFD0028F9D0641CB442F2DBF8BDF8
:102E30000038014010B5014601A000F0EDF810BDCA
:102E400025730D0A00000000F0B5CFB00446012044
:102E50006D46287000216970A87028722046FDF721
:102E60008BFB019037206872FA20A8722120E8724B
:102E70003D202873019B802204A82A748121297493
:102E800001216A746E467E2B0CD21A4369464A743D
:102E900002210022B5186D7A4554491C521C042A9F
:102EA000F8DB13E01A46144D7E3AAA420ED2FE21F8
:102EB0006A465174190A9174D37404210022B5181A
:102EC0006D7A4554491C521C042AF8DB00220CE0A0
:102ED000D517AD0FAD18AD08AD00551BAD196D7A06
:102EE000A75C7D404554491C521C9A42F0D304A86B
:102EF000FFF78AFF4FB0F0BD82FF000010B5C8B0E9
:102F000023A16846FDF706FB274801686846FDF7E0
:102F100055FB26A16846FDF751FB2E4C2EA140A87B
:102F20002268FDF7CBF940A96846FDF747FB2BA1C6
:102F30006846FDF743FB28A140A8A268FDF7BEF94B
:102F400040A96846FDF73AFB29A16846FDF736FB24
:102F500021A140A86268FDF7B1F940A96846FDF7D4
:102F60002DFB27A16846FDF729FB1BA140A8E268BD
:102F7000FDF7A4F940A96846FDF720FB25A16846A6
:102F8000FDF71CFB6846FFF75FFF48B010BD00006F
:102F90007B226964223A225357545A5F43616E740C
:102FA000696C657665725F0024000020222C227413
:102FB0006F223A2275736572222C227365727669CC
:102FC000636573223A7B22737472656E677468312D
:102FD000223A22002C00002025640000222C2274BA
:102FE00068726573686F6C6431223A2200000000D9
:102FF000222C22737472656E67746832223A220042
:10300000222C227468726573686F6C6432223A22D3
:1030100000000000227D7D000FB4F8B507AA10481B
:103020000699FDF739F9002000900D48FDF7A4FA44
:1030300085B200240B4E0A4F0BE040213046FFF7CB
:10304000BFFC0028F9D0395D3046FFF743FD641C12
:10305000A4B2AC42F1D3F8BC08BC04B018470000DD
:103060004002002000380140F0B589B00746012138
:103070004804FFF797F801218803FFF7AFF809210B
:10308000CE0601223046FEF721FF01220A213046FA
:10309000FEF71CFF032040020790022108A80170E0
:1030A00003214170002484700125C57007A93046B2
:1030B000FEF7D4FE019702940394049406940C2026
:1030C00005900B4C01A92046FFF7B6FC01220949E7
:1030D0002046FFF79AFC01212046FFF765FC1B21E3
:1030E0006846017045708570FFF712F809B0F0BDB1
:1030F000003801400501050010B500290AD0087804
:10310000002807D005487844FDF7BAFA002801D016
:10311000002010BD0248784410BD0000DE0200000F
:10312000D602000010B500290AD00878002807D080
:1031300005487844FDF7A4FA002801D0002010BD0E
:103140000248784410BD0000CE020000C602000014
:1031500003B402487844844603BC6047A3DDFFFF04
:1031600003B402487844844603BC60470DE0FFFF87
:103170000400000800000000000000020001000040
:103180001000000000000000000000003031323369
:10319000343536373839414243444546403058008B
:1031A00030313233343536373839616263646566BD
:1031B0004030780030313233343536373839616257
:1031C00063646566787000303132333435363738B1
:1031D0003941424344454658500000000240000037
:1031E000000000A00000000005400000000000C832
:1031F000000000000C4000000000409C00000000A7
:10320000194000000020BCBE000000003440000057
:10321000BFC91B8E00000004B5400000504BCFD04A
:103220006607E2CF010000006C4100003E8251AA17
:10323000DFEEA73401000000D9420000DCB5A0E2B7
:103240003A301F97FFFFFFFFB4450000FD25A0C8DF
:10325000E9A3C14FFFFFFFFFFF3F00000000008018
:1032600000000000FF3F00000000008000000000A0
:1032700020485454502F312E310D0A486F73743A40
:10328000202D2E6E65740D0A557067726164653A63
:1032900020776562736F636B65740D0A436F6E6EA2
:1032A000656374696F6E3A20557067726164650D6D
:1032B0000A5365632D576562536F636B65742D4BBD
:1032C00065793A206447686C49484E686258427391
:1032D0005A5342756232356A5A513D3D0D0A4F725A
:1032E0006967696E3A20687474703A2F2F3464638A
:1032F0006C6173732E6E65740D0A5365632D57658B
:1033000062536F636B65742D50726F746F636F6C73
:103310003A20636861742C2073757065726368610C
:10332000740D0A5365632D576562536F636B657443
:103330002D56657273696F6E3A2031330D0A5573DD
:1033400065722D4167656E743A20455350383236A8
:10335000360D0A0047455420687474703A2F2F3494
:1033600064636C6173732E6E65742F576562536F5F
:10337000636B65742F636861742F000041542B43A5
:10338000495053544152543D22544350222C22342C
:1033900064636C6173732E6E6574222C3830000088
:1033A000464646464646464646464646460000008F
:1033B0005357545A5F43616E74696C657665725FEA
:1033C0000000000010350008000000206000000030
:1033D000040100087035000860000020700900003A
:1033E000200100081C00000043000000F8FFFFFF60
:1033F0000C0000000E0000000F0000002E00000076
:103400001001000043000000F8FFFFFF00404040B3
:1034100040404040404041414141414040404040A7
:103420004040404040404040404040404005020253
:103430000202020202020202020202020220202012
:10344000202020202020200202020202020290906E
:10345000909090901010101010101010101010106C
:1034600010101010101010100202020202028888C0
:1034700088888888080808080808080808080808CC
:1034800008080808080808080202020240000000B4
:10349000000000000000000000000000000000002C
:1034A000000000000000000000000000000000001C
:1034B000000000000000000000000000000000000C
:1034C00000000000000000000000000000000000FC
:1034D00000000000000000000000000000000000EC
:1034E00000000000000000000000000000000000DC
:1034F00000000000000000000000000000000000CC
:1035000000000000000000000000000000000000BB
:10351000006CDC0200000000000000000102030457
:10352000060708097C330008B0330008543300084C
:1035300070320008A0330008000000000000000006
:10354000000000000000000000000000000000007B
:10355000000000000000000000000000000000006B
:103560000102030401020304060708090000000029
:04000005080000C12E
:00000001FF
